:100000000C9464000C948C000C948C000C948C0068
:100010000C948C000C948C000C948C000C948C0030
:100020000C948C000C948C000C948C000C948C0020
:100030000C948C000C948C000C948C000C948C0010
:100040000C94D2190C948C000C94C61C0C94F81CC3
:100050000C948C000C948C000C948C000C948C00F0
:100060000C948C000C948C0000000008000201002D
:100070000003040700000000000000000102040863
:100080001020408001020408102001020408102002
:10009000040404040404040402020202020203032E
:1000A00003030303000000002300260029000000D2
:1000B0000000250028002B0000000000240027007D
:1000C0002A0032169318281D11241FBECFEFD8E046
:1000D000DEBFCDBF14E0A0E0B1E0E0EFFCE302C082
:1000E00005900D92A835B107D9F725E0A8E5B4E051
:1000F00001C01D92A53EB207E1F710E0C8ECD0E0C8
:1001000004C02297FE010E945E1EC23CD107C9F7BF
:100110000E94C21D0C94761E0C94000040910001B8
:100120005091010125E038E0429FC001439F900DAE
:10013000529F900D1124875E994C909301018093FA
:100140000001890F0895FC01858596850895CF9358
:10015000DF9300D000D000D0CDB7DEB7AB011C825A
:100160001D821E82DC01ED91FC910190F081E02D59
:1001700019821A821B829E012F5F3F4FBE016C5F66
:100180007F4F099526960FB6F894DEBF0FBECDBF00
:10019000DF91CF91089580E090E0089580E991E0AB
:1001A000089580E991E0089580E991E0089580E95B
:1001B00091E00895569A0895559A0895549A08958D
:1001C000539A0895409100015091010125E038E0D3
:1001D000429FC001439F900D529F900D1124875E56
:1001E000994C909301018093000180E090E0089584
:1001F000FC01DB013C912081230F08F42FEF2083C9
:1002000011963C9111972181230F08F42FEF218340
:1002100012963C912281230F08F42FEF2283089538
:10022000FC0160810C944C1760E08DE00C94221B63
:10023000DF92EF92FF920F931F93CF93DF9300D043
:100240001F92CDB7DEB702E315E080E6D82EF801A5
:10025000D082FF24FA94F98295EAE92EEA821B8281
:10026000AE014F5F5F4F61E070E080E295E00E9479
:10027000AA18C8010E94100162E370E080E090E0DB
:100280000E944B1A88E3F8018083F982EA821B827C
:10029000AE014F5F5F4F61E070E080E295E00E9449
:1002A000AA18C8010E94100162E370E080E090E0AB
:1002B0000E944B1A8CE4F8018083F982EA821B8247
:1002C000AE014F5F5F4F61E070E080E295E00E9419
:1002D000AA18C8010E94100162E370E080E090E07B
:1002E0000E944B1A8EE2F8018083F982EA821B8217
:1002F000AE014F5F5F4F61E070E080E295E00E94E9
:10030000AA18C8010E94100162E370E080E090E04A
:100310000E944B1A82E4F8018083F982EA821B82F0
:10032000AE014F5F5F4F61E070E080E295E00E94B8
:10033000AA18C8010E94100162E370E080E090E01A
:100340000E944B1A84E2F8018083F982EA821B82C0
:10035000AE014F5F5F4F61E070E080E295E00E9488
:10036000AA18C8010E94100162E370E080E090E0EA
:100370000E944B1A8AE1F8018083F982EA821B828B
:10038000AE014F5F5F4F61E070E080E295E00E9458
:10039000AA18C8010E94100162E370E080E090E0BA
:1003A0000E944B1AF801F08219821A821B82AE0158
:1003B0004F5F5F4F61E070E080E295E00E94AA1815
:1003C000C8010E94100162E370E080E090E00E94AA
:1003D0004B1AF801D0820F900F900F90DF91CF91C0
:1003E0001F910F91FF90EF90DF900895DF92EF92B1
:1003F000FF920F931F93CF93DF9300D01F92CDB73F
:10040000DEB702E315E020E6D22EF801D082FF2409
:10041000FA94F98235EAE32EEA821B82AE014F5F3D
:100420005F4F61E070E08DE195E00E94AA18C8017D
:100430000E94100162E370E080E090E00E944B1A9D
:1004400088E3F8018083F982EA821B82AE014F5F64
:100450005F4F61E070E08DE195E00E94AA18C8014D
:100460000E94100162E370E080E090E00E944B1A6D
:100470008CE4F8018083F982EA821B82AE014F5F2F
:100480005F4F61E070E08DE195E00E94AA18C8011D
:100490000E94100162E370E080E090E00E944B1A3D
:1004A0008EE2F8018083F982EA821B82AE014F5FFF
:1004B0005F4F61E070E08DE195E00E94AA18C801ED
:1004C0000E94100162E370E080E090E00E944B1A0D
:1004D00082E4F8018083F982EA821B82AE014F5FD9
:1004E0005F4F61E070E08DE195E00E94AA18C801BD
:1004F0000E94100162E370E080E090E00E944B1ADD
:1005000084E2F8018083F982EA821B82AE014F5FA8
:100510005F4F61E070E08DE195E00E94AA18C8018C
:100520000E94100162E370E080E090E00E944B1AAC
:100530008AE1F8018083F982EA821B82AE014F5F73
:100540005F4F61E070E08DE195E00E94AA18C8015C
:100550000E94100162E370E080E090E00E944B1A7C
:10056000F801F08219821A821B82AE014F5F5F4F41
:1005700061E070E08DE195E00E94AA18C8010E9438
:10058000100162E370E080E090E00E944B1AF801F5
:10059000D0820F900F900F90DF91CF911F910F910C
:1005A000FF90EF90DF900895DF92EF92FF920F930C
:1005B0001F93CF93DF9300D01F92CDB7DEB702E336
:1005C00015E040E6D42EF801D082FF24FA94F98297
:1005D00055EAE52EEA821B82AE014F5F5F4F61E074
:1005E00070E08AE195E00E94AA18C8010E941001FB
:1005F00062E370E080E090E00E944B1A88E3F8012B
:100600008083F982EA821B82AE014F5F5F4F61E017
:1006100070E08AE195E00E94AA18C8010E941001CA
:1006200062E370E080E090E00E944B1A8CE4F801F5
:100630008083F982EA821B82AE014F5F5F4F61E0E7
:1006400070E08AE195E00E94AA18C8010E9410019A
:1006500062E370E080E090E00E944B1A8EE2F801C5
:100660008083F982EA821B82AE014F5F5F4F61E0B7
:1006700070E08AE195E00E94AA18C8010E9410016A
:1006800062E370E080E090E00E944B1A82E4F8019F
:100690008083F982EA821B82AE014F5F5F4F61E087
:1006A00070E08AE195E00E94AA18C8010E9410013A
:1006B00062E370E080E090E00E944B1A84E2F8016F
:1006C0008083F982EA821B82AE014F5F5F4F61E057
:1006D00070E08AE195E00E94AA18C8010E9410010A
:1006E00062E370E080E090E00E944B1A8AE1F8013A
:1006F0008083F982EA821B82AE014F5F5F4F61E027
:1007000070E08AE195E00E94AA18C8010E941001D9
:1007100062E370E080E090E00E944B1AF801F08202
:1007200019821A821B82AE014F5F5F4F61E070E059
:100730008AE195E00E94AA18C8010E94100162E3B4
:1007400070E080E090E00E944B1AF801D0820F9098
:100750000F900F90DF91CF911F910F91FF90EF902D
:10076000DF900895DF92EF92FF920F931F93CF9344
:10077000DF9300D01F92CDB7DEB702E315E060E64D
:10078000D62EF801D082FF24FA94F98275EAE72E7A
:10079000EA821B82AE014F5F5F4F61E070E087E14C
:1007A00095E00E94AA18C8010E94100162E370E05F
:1007B00080E090E00E944B1A88E3F8018083F98280
:1007C000EA821B82AE014F5F5F4F61E070E087E11C
:1007D00095E00E94AA18C8010E94100162E370E02F
:1007E00080E090E00E944B1A8CE4F8018083F9824B
:1007F000EA821B82AE014F5F5F4F61E070E087E1EC
:1008000095E00E94AA18C8010E94100162E370E0FE
:1008100080E090E00E944B1A8EE2F8018083F9821A
:10082000EA821B82AE014F5F5F4F61E070E087E1BB
:1008300095E00E94AA18C8010E94100162E370E0CE
:1008400080E090E00E944B1A82E4F8018083F982F4
:10085000EA821B82AE014F5F5F4F61E070E087E18B
:1008600095E00E94AA18C8010E94100162E370E09E
:1008700080E090E00E944B1A84E2F8018083F982C4
:10088000EA821B82AE014F5F5F4F61E070E087E15B
:1008900095E00E94AA18C8010E94100162E370E06E
:1008A00080E090E00E944B1A8AE1F8018083F9828F
:1008B000EA821B82AE014F5F5F4F61E070E087E12B
:1008C00095E00E94AA18C8010E94100162E370E03E
:1008D00080E090E00E944B1AF801F08219821A829F
:1008E0001B82AE014F5F5F4F61E070E087E195E0F2
:1008F0000E94AA18C8010E94100162E370E080E023
:1009000090E00E944B1AF801D0820F900F900F9048
:10091000DF91CF911F910F91FF90EF90DF9008959D
:100920001F93CF93DF9300D01F92CDB7DEB7182F60
:100930000E948E00811798F48FEF89831A821B82A0
:100940000E94E2009C01220F331F280F391FBE01B5
:100950006F5F7F4FC901805E9A4F0E94F8000F9031
:100960000F900F90DF91CF911F9108951F93CF9318
:10097000DF9300D01F92CDB7DEB7182F0E948E00F4
:10098000811798F48FEF89831A821B820E94E200FC
:100990009C01220F331F280F391FBE016F5F7F4F4D
:1009A000C901835E9A4F0E94F8000F900F900F903C
:1009B000DF91CF911F9108951F93CF93DF9300D0C4
:1009C0001F92CDB7DEB7182F0E948E00811798F4C2
:1009D0008FEF89831A821B820E94E2009C01220F02
:1009E000331F280F391FBE016F5F7F4FC901865E1D
:1009F0009A4F0E94F8000F900F900F90DF91CF91C7
:100A00001F9108951F93CF93DF9300D01F92CDB70E
:100A1000DEB7182F0E948E00811798F48FEF89831C
:100A20001A821B820E94E2009C01220F331F280FB2
:100A3000391FBE016F5F7F4FC901895E9A4F0E94C7
:100A4000F8000F900F900F90DF91CF911F910895B4
:100A5000CF93DF9300D01F92CDB7DEB78091FC0417
:100A60009091FD04019769F419821A821B82AE01EC
:100A70004F5F5F4F61E070E080E295E00E94AA184E
:100A80000CC027E04091CD0461E070E080E295E089
:100A90000E94BF1885E00E9490048091FA04909112
:100AA000FB04019769F419821A821B82AE014F5F21
:100AB0005F4F61E070E08DE195E00E94AA180DC0E3
:100AC0004091CD04405C27E061E070E08DE195E06D
:100AD0000E94BF1885E00E94B6048091F8049091AE
:100AE000F904019769F419821A821B82AE014F5FE3
:100AF0005F4F61E070E08AE195E00E94AA180DC0A6
:100B00004091CD04405827E061E070E08AE195E033
:100B10000E94BF1885E00E94DC048091F604909149
:100B2000F704019769F419821A821B82AE014F5FA4
:100B30005F4F61E070E087E195E00E94AA180DC068
:100B40004091CD04415427E061E070E087E195E0F9
:100B50000E94BF1885E00E9402050F900F900F9031
:100B6000DF91CF910895FF920F931F93CF93DF935F
:100B700000D01F92CDB7DEB719821A821B82AE0158
:100B80004F5F5F4F61E070E080E295E00E94AA183D
:100B900019821A821B82AE014F5F5F4F61E070E0E5
:100BA0008DE195E00E94AA1819821A821B82AE017B
:100BB0004F5F5F4F61E070E08AE195E00E94AA1804
:100BC00019821A821B82AE014F5F5F4F61E070E0B5
:100BD00087E195E00E94AA1882E395E00E94100147
:100BE00068EE73E080E090E00E944B1A02E315E0AB
:100BF000FF24FA94F801F082F9821A821B82AE0176
:100C00004F5F5F4F61E070E080E295E00E94AA18BC
:100C1000F9821A821B82AE014F5F5F4F61E070E084
:100C20008DE195E00E94AA18F9821A821B82AE011A
:100C30004F5F5F4F61E070E08AE195E00E94AA1883
:100C4000F9821A821B82AE014F5F5F4F61E070E054
:100C500087E195E00E94AA18C8010E94100168EB84
:100C60007BE080E090E00E944B1A80E6F8018083F0
:100C70000F900F900F90DF91CF911F910F91FF90E8
:100C800008951F93CF93DF9300D01F92CDB7DEB7A7
:100C90001FEF19831A831B83AE014F5F5F4F61E023
:100CA00070E080E295E00E94AA1882E395E00E943D
:100CB000100164E170E080E090E00E944B1A19821C
:100CC0001A821B82AE014F5F5F4F61E070E080E2ED
:100CD00095E00E94AA1819821A821B82AE014F5F0A
:100CE0005F4F61E070E08DE195E00E94AA181982E3
:100CF0001A821B82AE014F5F5F4F61E070E08AE1B4
:100D000095E00E94AA1819821A821B82AE014F5FD9
:100D10005F4F61E070E087E195E00E94AA1882E3EE
:100D200095E00E9410016AE070E080E090E00E948F
:100D30004B1A19831A831B83AE014F5F5F4F61E02B
:100D400070E080E295E00E94AA1819831A831B8341
:100D5000AE014F5F5F4F61E070E08DE195E00E9472
:100D6000AA1819831A831B83AE014F5F5F4F61E09E
:100D700070E08AE195E00E94AA1819831A831B8308
:100D8000AE014F5F5F4F61E070E087E195E00E9448
:100D9000AA1882E395E00E9410016AE070E080E00A
:100DA00090E00E944B1A19821A821B82AE014F5F9B
:100DB0005F4F61E070E080E295E00E94AA1819821E
:100DC0001A821B82AE014F5F5F4F61E070E08DE1E0
:100DD00095E00E94AA1819821A821B82AE014F5F09
:100DE0005F4F61E070E08AE195E00E94AA181982E5
:100DF0001A821B82AE014F5F5F4F61E070E087E1B6
:100E000095E00E94AA1882E395E00E94100164E137
:100E100070E080E090E00E944B1A19831A831B83D4
:100E2000AE014F5F5F4F61E070E080E295E00E94AD
:100E3000AA1819831A831B83AE014F5F5F4F61E0CD
:100E400070E08DE195E00E94AA1819831A831B8334
:100E5000AE014F5F5F4F61E070E08AE195E00E9474
:100E6000AA1819831A831B83AE014F5F5F4F61E09D
:100E700070E087E195E00E94AA1882E395E00E9465
:100E8000100164E170E080E090E00E944B1A19824A
:100E90001A821B82AE014F5F5F4F61E070E080E21B
:100EA00095E00E94AA1819821A821B82AE014F5F38
:100EB0005F4F61E070E08DE195E00E94AA18198211
:100EC0001A821B82AE014F5F5F4F61E070E08AE1E2
:100ED00095E00E94AA1819821A821B82AE014F5F08
:100EE0005F4F61E070E087E195E00E94AA1882E31D
:100EF00095E00E94100164E170E080E090E00E94C3
:100F00004B1A19831A831B83AE014F5F5F4F61E059
:100F100070E080E295E00E94AA1819831A831B836F
:100F2000AE014F5F5F4F61E070E08DE195E00E94A0
:100F3000AA1819831A831B83AE014F5F5F4F61E0CC
:100F400070E08AE195E00E94AA1819831A831B8336
:100F5000AE014F5F5F4F61E070E087E195E00E9476
:100F6000AA1882E395E00E9410016EE170E080E033
:100F700090E00E944B1A19821A821B82AE014F5FC9
:100F80005F4F61E070E080E295E00E94AA1819824C
:100F90001A821B82AE014F5F5F4F61E070E08DE10E
:100FA00095E00E94AA1819821A821B82AE014F5F37
:100FB0005F4F61E070E08AE195E00E94AA18198213
:100FC0001A821B82AE014F5F5F4F61E070E087E1E4
:100FD00095E00E94AA1882E395E00E94100162E366
:100FE00070E080E090E00E944B1A19831A831B8303
:100FF000AE014F5F5F4F61E070E080E295E00E94DC
:10100000AA1819831A831B83AE014F5F5F4F61E0FB
:1010100070E08DE195E00E94AA1819831A831B8362
:10102000AE014F5F5F4F61E070E08AE195E00E94A2
:10103000AA1819831A831B83AE014F5F5F4F61E0CB
:1010400070E087E195E00E94AA1882E395E00E9493
:1010500010016EE170E080E090E00E944B1A19826E
:101060001A821B82AE014F5F5F4F61E070E080E249
:1010700095E00E94AA1819821A821B82AE014F5F66
:101080005F4F61E070E08DE195E00E94AA1819823F
:101090001A821B82AE014F5F5F4F61E070E08AE110
:1010A00095E00E94AA1819821A821B82AE014F5F36
:1010B0005F4F61E070E087E195E00E94AA1882E34B
:1010C00095E00E9410016AE070E080E090E00E94EC
:1010D0004B1A19831A831B83AE014F5F5F4F61E088
:1010E00070E080E295E00E94AA1819831A831B839E
:1010F000AE014F5F5F4F61E070E08DE195E00E94CF
:10110000AA1819831A831B83AE014F5F5F4F61E0FA
:1011100070E08AE195E00E94AA1819831A831B8364
:10112000AE014F5F5F4F61E070E087E195E00E94A4
:10113000AA1882E395E00E94100164E170E080E06B
:1011400090E00E944B1A19821A821B82AE014F5FF7
:101150005F4F61E070E080E295E00E94AA1819827A
:101160001A821B82AE014F5F5F4F61E070E08DE13C
:1011700095E00E94AA1819821A821B82AE014F5F65
:101180005F4F61E070E08AE195E00E94AA18198241
:101190001A821B82AE014F5F5F4F61E070E087E112
:1011A00095E00E94AA1882E395E00E9410010E9437
:1011B00028050F900F900F90DF91CF911F91089508
:1011C00061E08DE00E94221B68E873E180E090E01E
:1011D0000E944B1A0C944106FF920F931F93CF93DA
:1011E000DF9300D01F92CDB7DEB719821A821B821F
:1011F000AE014F5F5F4F61E070E080E295E00E94DA
:10120000AA1819821A821B82AE014F5F5F4F61E0FC
:1012100070E08DE195E00E94AA1819821A821B8263
:10122000AE014F5F5F4F61E070E08AE195E00E94A0
:10123000AA1819821A821B82AE014F5F5F4F61E0CC
:1012400070E087E195E00E94AA1882E395E00E9491
:10125000100168EE73E080E090E00E944B1A02E318
:1012600015E08FEFF8018083198280E8F82EFA826A
:101270001B82AE014F5F5F4F61E070E080E295E05E
:101280000E94AA181982FA821B82AE014F5F5F4F3B
:1012900061E070E08DE195E00E94AA181982FA825F
:1012A0001B82AE014F5F5F4F61E070E08AE195E025
:1012B0000E94AA181982FA821B82AE014F5F5F4F0B
:1012C00061E070E087E195E00E94AA18C8010E94E1
:1012D000100168EB7BE080E090E00E944B1A80E612
:1012E000F80180830E94E0080F900F900F90DF912B
:1012F000CF911F910F91FF90089580E095E00E949B
:10130000B319882301F162E071E088E495E00E945E
:10131000AD1D0E94EC081092FF041092FE04109282
:10132000FD041092FC041092FB041092FA04109237
:10133000F9041092F8041092F7041092F60480E079
:1013400095E00C94AF196AE071E088E495E00E94A2
:10135000AD1D0E94B3051092FF041092FE0410927E
:10136000FD041092FC041092FB041092FA041092F7
:10137000F9041092F8041092F7041092F60480E039
:1013800095E00E94AF190C9441068091FE04909163
:10139000FF04049711F40C947D098CEE94E00E94F4
:1013A000741682EE94E00E94741688ED94E00E9418
:1013B00074168EEC94E00E9474168CEE94E00E94F9
:1013C000A616892BE1F48091FC049091FD04892BF1
:1013D000B1F461E380E095E00E949D198091FE04E4
:1013E0009091FF0401969093FF048093FE040E9465
:1013F000180181E090E09093FD048093FC0482EE5C
:1014000094E00E94A616892BE1F48091FA04909151
:10141000FB04892BB1F462E380E095E00E949D1902
:101420008091FE049091FF0401969093FF048093B5
:10143000FE040E94F60181E090E09093FB0480930B
:10144000FA0488ED94E00E94A616892BE1F48091BD
:10145000F8049091F904892BB1F463E380E095E0FE
:101460000E949D198091FE049091FF040196909333
:10147000FF048093FE040E94D40281E090E09093E8
:10148000F9048093F8048EEC94E00E94A616892B50
:10149000E1F48091F6049091F704892BB1F464E3B0
:1014A00080E095E00E949D198091FE049091FF04D8
:1014B00001969093FF048093FE040E94B20381E0A2
:1014C00090E09093F7048093F60408950F931F9390
:1014D0008091C504811119C00E941C1A609359049F
:1014E00070935A0480935B0490935C0484E190E0D1
:1014F000A0E0B0E080935D0490935E04A0935F044D
:10150000B093600481E08093C5040E941C1A00918E
:10151000590410915A0420915B0430915C04601BC3
:10152000710B820B930B00915D0410915E0420916E
:101530005F0430916004601771078207930778F0A9
:101540000E941C1A6093590470935A0480935B04A0
:1015500090935C048091CD048F5F8093CD040E94B2
:1015600014010E9428050E94C50982E395E00E94AB
:10157000100148E050E060E070E082E395E01F91E8
:101580000F910C94DE17FC0183ED93E0918380832F
:10159000138212828FEF8683878380878187828779
:1015A000838781E084871686158615821482809150
:1015B000300590913105892B21F4F0933105E093AA
:1015C0003005A0912E05B0912F05109721F01596AA
:1015D000FC93EE931497F0932F05E0932E0583EE82
:1015E00093E091838083089526E040E855E260E02F
:1015F00070E088E495E00E94641C60E171E088E49A
:1016000095E00E94AD1D65E571E088E495E00E94DB
:10161000AD1D60E771E088E495E00E94AD1D6FE7C5
:1016200071E088E495E00E94AD1D6AEA71E088E40B
:1016300095E00E94AD1D65ED71E088E495E00E94A3
:10164000AD1D61E072E088E495E00E94AD1D6DE2A1
:1016500072E088E495E00E94AD1D6BE474E088E4DC
:1016600095E00E94AD1D60E472E088E495E00E9480
:10167000AD1D6CE772E088E495E00E94AD1D6CEC56
:1016800072E088E495E00E94AD1D69E173E088E4B2
:1016900095E00E94AD1D61E873E088E495E00E944A
:1016A000AD1D6BE474E088E495E00E94AD1D68EB2D
:1016B0007BE080E090E00E944B1A61E08DE00E94A8
:1016C000E91A62E088E00E94E91A62E089E00E947B
:1016D000E91A62E08AE00E94E91A62E08BE00E9467
:1016E000E91A8091BD04811111C084E994E00E943F
:1016F000C30A1092A4041092A30485EF93E0909380
:1017000095048093940481E08093BD0420E030E050
:1017100041E050E060E275E084E994E00E945818EE
:10172000FC018FEF868380EB878380EF8087809139
:10173000B504811111C083E894E00E94C30A10929D
:1017400093041092920487E094E090938404809331
:10175000830481E08093B50420E030E041E050E074
:101760006DE175E083E894E00E945818FC018FEF6A
:10177000868380EB878380EF80878091AD04811121
:1017800011C082E794E00E94C30A10928204109272
:10179000810489E194E0909373048093720481E062
:1017A0008093AD0420E030E041E050E06AE175E074
:1017B00082E794E00E945818FC018FEF868380EB4B
:1017C000878380EF80878091A504811111C081E615
:1017D00094E00E94C30A10927104109270048BE28C
:1017E00094E0909362048093610481E08093A50467
:1017F00020E030E041E050E067E175E081E694E010
:101800000E945818FC018FEF868380EB878380EF5E
:10181000808780E6809332050895CF93DF93EC01B3
:101820000E94281A28813981621B730B6A30710566
:10183000B8F3DF91CF9108959F92AF92BF92CF926C
:10184000DF92EF92FF920F931F93CF93DF93EC0100
:10185000E881F9819BB190648BB18F7B8BB95A85FC
:101860002F81D52ED21ADF82AF84AA81BB812D852C
:101870003C854E852F5F3F5F4F5FEE80F8849984F3
:10188000CB851181C12C0C2D6C2D7C2D71811127E4
:10189000889471117D0D08F47FEFD194889420FD18
:1018A000170F1795889421FD170F1795889422FD1F
:1018B000170F1795889423FD170F1795889424FD0B
:1018C000170F1795889425FD170F1795889426FDF7
:1018D000170F1795889427FD170F17958894072FD2
:1018E0002111012FD50E102F002C9BB900C017FF1E
:1018F0008BB970810027889400C000C0002C8BB980
:1019000071117E0D00C0002C9BB900C016FF8BB971
:1019100008F47FEFE194889400C000C0002C8BB9DC
:1019200030FD070F00C0002C9BB900C015FF8BB91C
:101930000795889431FD070F00C000C0002C8BB9BB
:101940000795889400C0002C9BB900C014FF8BB988
:1019500032FD070F0795889400C000C0002C8BB99A
:1019600033FD070F00C0002C9BB900C013FF8BB9DB
:101970000795889434FD070F00C000C0002C8BB978
:101980000795889400C0002C9BB900C012FF8BB94A
:1019900035FD070F0795889400C000C0002C8BB957
:1019A00036FD070F00C0002C9BB900C011FF8BB99A
:1019B0000795889437FD070F00C000C0002C8BB935
:1019C0000795889400C0002C9BB900C010FF8BB90C
:1019D000172F3111102FE90C00C000C0002C8BB95B
:1019E00000C000C0002C9BB900C017FF8BB97281EA
:1019F0000027889400C000C0002C8BB971117F0DA6
:101A000000C0002C9BB900C016FF8BB908F47FEF13
:101A1000EA0DF11D00C000C0002C8BB940FD070F7E
:101A200000C0002C9BB900C015FF8BB907958894A6
:101A300041FD070F00C000C0002C8BB907958894AA
:101A400000C0002C9BB900C014FF8BB942FD070FEA
:101A50000795889400C000C0002C8BB943FD070F88
:101A600000C0002C9BB900C013FF8BB90795889468
:101A700044FD070F00C000C0002C8BB90795889467
:101A800000C0002C9BB900C012FF8BB945FD070FA9
:101A90000795889400C000C0002C8BB946FD070F45
:101AA00000C0002C9BB900C011FF8BB9079588942A
:101AB00047FD070F00C000C0002C8BB90795889424
:101AC00000C0002C9BB900C010FF8BB9172F41112B
:101AD000102FF19400C000C0002C8BB9FC0E00C088
:101AE00000C09BB900C017FF8BB971810027889493
:101AF00000C000C0002C8BB971117D0D00C0002CFE
:101B00009BB900C016FF8BB908F47FEFD19488947D
:101B100000C000C0002C8BB920FD070F00C0002CB6
:101B20009BB900C015FF8BB90795889421FD070F5D
:101B300000C000C0002C8BB90795889400C0002C11
:101B40009BB900C014FF8BB922FD070F079588943D
:101B500000C000C0002C8BB923FD070F00C0002C73
:101B60009BB900C013FF8BB90795889424FD070F1C
:101B700000C000C0002C8BB90795889400C0002CD1
:101B80009BB900C012FF8BB925FD070F07958894FC
:101B900000C000C0002C8BB926FD070F00C0002C30
:101BA0009BB900C011FF8BB90795889427FD070FDB
:101BB00000C000C0002C8BB90795889400C0002C91
:101BC0009BB900C010FF8BB9172F2111102FD50E14
:101BD00000C000C0002C8BB9119709F086CEDF91B0
:101BE000CF911F910F91FF90EF90DF90CF90BF901A
:101BF000AF909F9008950F931F93CF93DF93EC01C5
:101C00008B010F960E940D0CF894C8010E941C0CC9
:101C1000F8014281538120EE31E0DA010E944A1E30
:101C2000E4E09695879577956795EA95D1F720E05A
:101C300030E0EAE94E9F212D5E9F200D311D1124D9
:101C4000620F731F811D911D693EF3E07F078105BF
:101C50009105A8F1DC01CB01885E9340A109B1098F
:101C600022E0B695A795979587952A95D1F740E0FC
:101C700050E027E0829F412D929F400D511D11247D
:101C80002091230530E0280F391F240F351F809144
:101C9000400590914105A0914205B0914305432F25
:101CA0005527840F951FA11DB11D8093400590936A
:101CB0004105A0934205B0934305209323057894F2
:101CC0000E94281A788B6F87DF91CF911F910F9117
:101CD00008959F92AF92BF92CF92DF92EF92FF92C0
:101CE0000F931F93CF93DF93EC01E881F9819BB1B0
:101CF00090628BB18F7D8BB95A852F81D52ED21AE8
:101D0000DF82AF84AA81BB812D853C854E852F5F04
:101D10003F5F4F5FEE80F8849984CB851181C12CA1
:101D20000C2D6C2D7C2D71811127889471117D0DE6
:101D300008F47FEFD194889420FD170F17958894AD
:101D400021FD170F1795889422FD170F179588947A
:101D500023FD170F1795889424FD170F1795889466
:101D600025FD170F1795889426FD170F1795889452
:101D700027FD170F17958894072F2111012FD50ED6
:101D8000102F002C9BB900C017FF8BB97081002762
:101D9000889400C000C0002C8BB971117E0D00C06A
:101DA000002C9BB900C016FF8BB908F47FEFE194BB
:101DB000889400C000C0002C8BB930FD070F00C014
:101DC000002C9BB900C015FF8BB90795889431FD95
:101DD000070F00C000C0002C8BB90795889400C085
:101DE000002C9BB900C014FF8BB932FD070F07957B
:101DF000889400C000C0002C8BB933FD070F00C0D1
:101E0000002C9BB900C013FF8BB90795889434FD53
:101E1000070F00C000C0002C8BB90795889400C044
:101E2000002C9BB900C012FF8BB935FD070F079539
:101E3000889400C000C0002C8BB936FD070F00C08D
:101E4000002C9BB900C011FF8BB90795889437FD12
:101E5000070F00C000C0002C8BB90795889400C004
:101E6000002C9BB900C010FF8BB9172F3111102F18
:101E7000E90C00C000C0002C8BB900C000C0002CD1
:101E80009BB900C017FF8BB972810027889400C0EE
:101E900000C0002C8BB971117F0D00C0002C9BB9C4
:101EA00000C016FF8BB908F47FEFEA0DF11D00C0EA
:101EB00000C0002C8BB940FD070F00C0002C9BB95F
:101EC00000C015FF8BB90795889441FD070F00C02E
:101ED00000C0002C8BB90795889400C0002C9BB9DA
:101EE00000C014FF8BB942FD070F0795889400C00E
:101EF00000C0002C8BB943FD070F00C0002C9BB91C
:101F000000C013FF8BB90795889444FD070F00C0EC
:101F100000C0002C8BB90795889400C0002C9BB999
:101F200000C012FF8BB945FD070F0795889400C0CC
:101F300000C0002C8BB946FD070F00C0002C9BB9D8
:101F400000C011FF8BB90795889447FD070F00C0AB
:101F500000C0002C8BB90795889400C0002C9BB959
:101F600000C010FF8BB9172F4111102FF19400C042
:101F700000C0002C8BB9FC0E00C000C09BB900C093
:101F800017FF8BB971810027889400C000C0002C16
:101F90008BB971117D0D00C0002C9BB900C016FFDC
:101FA0008BB908F47FEFD194889400C000C0002C56
:101FB0008BB920FD070F00C0002C9BB900C015FF96
:101FC0008BB90795889421FD070F00C000C0002C35
:101FD0008BB90795889400C0002C9BB900C014FFF2
:101FE0008BB922FD070F0795889400C000C0002C14
:101FF0008BB923FD070F00C0002C9BB900C013FF55
:102000008BB90795889424FD070F00C000C0002CF1
:102010008BB90795889400C0002C9BB900C012FFB3
:102020008BB925FD070F0795889400C000C0002CD0
:102030008BB926FD070F00C0002C9BB900C011FF13
:102040008BB90795889427FD070F00C000C0002CAE
:102050008BB90795889400C0002C9BB900C010FF75
:102060008BB9172F2111102FD50E00C000C0002CE6
:102070008BB9119709F086CEDF91CF911F910F9107
:10208000FF90EF90DF90CF90BF90AF909F9008951A
:102090000F931F93CF93DF93EC018B010F960E9458
:1020A0000D0CF894C8010E94690EF8014281538119
:1020B00020EE31E0DA010E944A1E04E096958795F1
:1020C000779567950A95D1F720E030E0EAE94E9FD1
:1020D000212D5E9F200D311D1124620F731F811D64
:1020E000911D693EF3E07F0781059105A8F1DC01B0
:1020F000CB01885E9340A109B109F2E0B695A7959E
:1021000097958795FA95D1F740E050E027E0829FB8
:10211000412D929F400D511D11242091230530E047
:10212000280F391F240F351F8091400590914105DC
:10213000A0914205B0914305432F5527840F951F69
:10214000A11DB11D8093400590934105A0934205C8
:10215000B09343052093230578940E94281A788B26
:102160006F87DF91CF911F910F9108959F92AF924A
:10217000BF92CF92DF92EF92FF920F931F93CF9374
:10218000DF93EC01E881F9819BB190618BB18F7E87
:102190008BB95A852F81D52ED21ADF82AF84AA81BE
:1021A000BB812D853C854E852F5F3F5F4F5FEE8065
:1021B000F8849984CB851181C12C0C2D6C2D7C2D3C
:1021C00071811127889471117D0D08F47FEFD194EE
:1021D000889420FD170F1795889421FD170F1795E8
:1021E000889422FD170F1795889423FD170F1795D4
:1021F000889424FD170F1795889425FD170F1795C0
:10220000889426FD170F1795889427FD170F1795AB
:102210008894072F2111012FD50E102F002C9BB968
:1022200000C017FF8BB970810027889400C000C0E0
:10223000002C8BB971117E0D00C0002C9BB900C021
:1022400016FF8BB908F47FEFE194889400C000C0BA
:10225000002C8BB930FD070F00C0002C9BB900C0CB
:1022600015FF8BB90795889431FD070F00C000C09A
:10227000002C8BB90795889400C0002C9BB900C036
:1022800014FF8BB932FD070F0795889400C000C07A
:10229000002C8BB933FD070F00C0002C9BB900C088
:1022A00013FF8BB90795889434FD070F00C000C059
:1022B000002C8BB90795889400C0002C9BB900C0F6
:1022C00012FF8BB935FD070F0795889400C000C039
:1022D000002C8BB936FD070F00C0002C9BB900C045
:1022E00011FF8BB90795889437FD070F00C000C018
:1022F000002C8BB90795889400C0002C9BB900C0B6
:1023000010FF8BB9172F3111102FE90C00C000C03E
:10231000002C8BB900C000C0002C9BB900C017FF77
:102320008BB972810027889400C000C0002C8BB943
:1023300071117F0D00C0002C9BB900C016FF8BB936
:1023400008F47FEFEA0DF11D00C000C0002C8BB92E
:1023500040FD070F00C0002C9BB900C015FF8BB9D2
:102360000795889441FD070F00C000C0002C8BB971
:102370000795889400C0002C9BB900C014FF8BB94E
:1023800042FD070F0795889400C000C0002C8BB950
:1023900043FD070F00C0002C9BB900C013FF8BB991
:1023A0000795889444FD070F00C000C0002C8BB92E
:1023B0000795889400C0002C9BB900C012FF8BB910
:1023C00045FD070F0795889400C000C0002C8BB90D
:1023D00046FD070F00C0002C9BB900C011FF8BB950
:1023E0000795889447FD070F00C000C0002C8BB9EB
:1023F0000795889400C0002C9BB900C010FF8BB9D2
:10240000172F4111102FF19400C000C0002C8BB980
:10241000FC0E00C000C09BB900C017FF8BB97181D2
:102420000027889400C000C0002C8BB971117D0D6D
:1024300000C0002C9BB900C016FF8BB908F47FEFD9
:10244000D194889400C000C0002C8BB920FD070FE8
:1024500000C0002C9BB900C015FF8BB9079588946C
:1024600021FD070F00C000C0002C8BB90795889490
:1024700000C0002C9BB900C014FF8BB922FD070FD0
:102480000795889400C000C0002C8BB923FD070F6E
:1024900000C0002C9BB900C013FF8BB9079588942E
:1024A00024FD070F00C000C0002C8BB9079588944D
:1024B00000C0002C9BB900C012FF8BB925FD070F8F
:1024C0000795889400C000C0002C8BB926FD070F2B
:1024D00000C0002C9BB900C011FF8BB907958894F0
:1024E00027FD070F00C000C0002C8BB9079588940A
:1024F00000C0002C9BB900C010FF8BB9172F211111
:10250000102FD50E00C000C0002C8BB9119709F018
:1025100086CEDF91CF911F910F91FF90EF90DF90CA
:10252000CF90BF90AF909F9008950F931F93CF933C
:10253000DF93EC018B010F960E940D0CF894C801FB
:102540000E94B610F8014281538120EE31E0DA0199
:102550000E944A1EE4E09695879577956795EA95DF
:10256000D1F720E030E0EAE94E9F212D5E9F200D5B
:10257000311D1124620F731F811D911D693EF3E00F
:102580007F0781059105A8F1DC01CB01885E9340AE
:10259000A109B10922E0B695A795979587952A9547
:1025A000D1F740E050E027E0829F412D929F400DFF
:1025B000511D11242091230530E0280F391F240FCD
:1025C000351F8091400590914105A0914205B09141
:1025D0004305432F5527840F951FA11DB11D8093DF
:1025E000400590934105A0934205B0934305209385
:1025F000230578940E94281A788B6F87DF91CF91FA
:102600001F910F9108959F92AF92BF92CF92DF9248
:10261000EF92FF920F931F93CF93DF93EC01E8812A
:10262000F9819BB198608BB1877F8BB95A852F81D7
:10263000D52ED21ADF82AF84AA81BB812D853C853D
:102640004E852F5F3F5F4F5FEE80F8849984CB8586
:102650001181C12C0C2D6C2D7C2D7181112788943A
:1026600071117D0D08F47FEFD194889420FD170F30
:102670001795889421FD170F1795889422FD170F41
:102680001795889423FD170F1795889424FD170F2D
:102690001795889425FD170F1795889426FD170F19
:1026A0001795889427FD170F17958894072F2111E8
:1026B000012FD50E102F002C9BB900C017FF8BB92E
:1026C00070810027889400C000C0002C8BB9711164
:1026D0007E0D00C0002C9BB900C016FF8BB908F41A
:1026E0007FEFE194889400C000C0002C8BB930FDCE
:1026F000070F00C0002C9BB900C015FF8BB90795D0
:10270000889431FD070F00C000C0002C8BB90795DD
:10271000889400C0002C9BB900C014FF8BB932FD17
:10272000070F0795889400C000C0002C8BB933FDBB
:10273000070F00C0002C9BB900C013FF8BB9079591
:10274000889434FD070F00C000C0002C8BB907959A
:10275000889400C0002C9BB900C012FF8BB935FDD6
:10276000070F0795889400C000C0002C8BB936FD78
:10277000070F00C0002C9BB900C011FF8BB9079553
:10278000889437FD070F00C000C0002C8BB9079557
:10279000889400C0002C9BB900C010FF8BB9172F84
:1027A0003111102FE90C00C000C0002C8BB900C003
:1027B00000C0002C9BB900C017FF8BB972810027A5
:1027C000889400C000C0002C8BB971117F0D00C02F
:1027D000002C9BB900C016FF8BB908F47FEFEA0DFF
:1027E000F11D00C000C0002C8BB940FD070F00C0D8
:1027F000002C9BB900C015FF8BB90795889441FD4B
:10280000070F00C000C0002C8BB90795889400C04A
:10281000002C9BB900C014FF8BB942FD070F079530
:10282000889400C000C0002C8BB943FD070F00C086
:10283000002C9BB900C013FF8BB90795889444FD09
:10284000070F00C000C0002C8BB90795889400C00A
:10285000002C9BB900C012FF8BB945FD070F0795EF
:10286000889400C000C0002C8BB946FD070F00C043
:10287000002C9BB900C011FF8BB90795889447FDC8
:10288000070F00C000C0002C8BB90795889400C0CA
:10289000002C9BB900C010FF8BB9172F4111102FCE
:1028A000F19400C000C0002C8BB9FC0E00C000C029
:1028B0009BB900C017FF8BB971810027889400C0B5
:1028C00000C0002C8BB971117D0D00C0002C9BB98C
:1028D00000C016FF8BB908F47FEFD194889400C034
:1028E00000C0002C8BB920FD070F00C0002C9BB945
:1028F00000C015FF8BB90795889421FD070F00C014
:1029000000C0002C8BB90795889400C0002C9BB99F
:1029100000C014FF8BB922FD070F0795889400C0F3
:1029200000C0002C8BB923FD070F00C0002C9BB901
:1029300000C013FF8BB90795889424FD070F00C0D2
:1029400000C0002C8BB90795889400C0002C9BB95F
:1029500000C012FF8BB925FD070F0795889400C0B2
:1029600000C0002C8BB926FD070F00C0002C9BB9BE
:1029700000C011FF8BB90795889427FD070F00C091
:1029800000C0002C8BB90795889400C0002C9BB91F
:1029900000C010FF8BB9172F2111102FD50E00C0CA
:1029A00000C0002C8BB9119709F086CEDF91CF9132
:1029B0001F910F91FF90EF90DF90CF90BF90AF905D
:1029C0009F9008950F931F93CF93DF93EC018B019A
:1029D0000F960E940D0CF894C8010E940313F80191
:1029E0004281538120EE31E0DA010E944A1E04E068
:1029F00096958795779567950A95D1F720E030E011
:102A0000EAE94E9F212D5E9F200D311D1124620F9A
:102A1000731F811D911D693EF3E07F0781059105BC
:102A2000A8F1DC01CB01885E9340A109B109F2E075
:102A3000B695A79597958795FA95D1F740E050E020
:102A400027E0829F412D929F400D511D112420911E
:102A5000230530E0280F391F240F351F80914005D2
:102A600090914105A0914205B0914305432F552710
:102A7000840F951FA11DB11D8093400590934105C2
:102A8000A0934205B09343052093230578940E94B8
:102A9000281A788B6F87DF91CF911F910F9108953E
:102AA000FC01118A108A0895FF920F931F93CF9310
:102AB000DF93EC01809158048F5F982F977090936B
:102AC000580480FD02C080E001C080E891FD806470
:102AD000947009F0806290E1F92EF80E20E030E069
:102AE00000E011E0FE01E20FF31F6485662331F080
:102AF00070E0C8010E94F51D6F5F01C060E0618752
:102B00004F2D469F040E40E0411D1124411102C08B
:102B1000168202C041504683662311F061506187DE
:102B20002F5F3F4F23303105E9F6DF91CF911F91A1
:102B30000F91FF900895EF92FF920F931F93CF9301
:102B4000DF93CDB7DEB762970FB6F894DEBF0FBE46
:102B5000CDBF8C017A01F901DC011C968C917A833E
:102B600069835C834B835E834D8390819D879181D4
:102B70009E8792819F87813029F4CE0101960E9421
:102B8000541506C01C861B861A86198618861F8255
:102B9000188AB701CE0101960E945015D801ED9117
:102BA000FC910484F585E02DBE016F5F7F4FC80165
:102BB000099562960FB6F894DEBF0FBECDBFDF91C8
:102BC000CF911F910F91FF90EF900895EF92FF9298
:102BD0000F931F93CF93DF93CDB7DEB762970FB6F6
:102BE000F894DEBF0FBECDBF8C017A01F901DC0184
:102BF0001C968C917A8369835C834B835E834D83BF
:102C000090819D8791819E8792819F87813029F451
:102C1000CE0101960E94541506C01C861B861A869A
:102C2000198618861F8283E0888BB701CE01019632
:102C30000E945015D801ED91FC910484F585E02D9A
:102C4000BE016F5F7F4FC801099562960FB6F89479
:102C5000DEBF0FBECDBFDF91CF911F910F91FF90CF
:102C6000EF9008956AEC73E080E095E00E94971978
:102C700028E044E150E060E070E08CEE94E00E94D7
:102C80005C1629E044E150E060E070E082EE94E000
:102C90000E945C162AE044E150E060E070E088EDBC
:102CA00094E00E945C162BE044E150E060E070E0AC
:102CB0008EEC94E00C945C161F93CF93DF93EC01A1
:102CC000122F4C835D836E837F830E941C1A68835E
:102CD00079838A839B83812F0E94581B8887198759
:102CE000DF91CF911F910895FF920F931F93CF9380
:102CF000DF93EC0189850E94581BF82E88858F117F
:102D000003C080E090E01CC00E941C1A0881198159
:102D10002A813B81601B710B820B930B0C811D81FF
:102D20002E813F81601771078207930750F30E943D
:102D30001C1A688379838A839B83F88681E090E0FC
:102D4000DF91CF911F910F91FF900895FC01808535
:102D500090E008958F929F92AF92BF92EF92FF9270
:102D60000F931F93CF93DF93EC01188219821A827D
:102D70004423B9F1E0E0F0E08B010A5F1F4F7B01D3
:102D800089E0E80EF11C842E912CA12CB12CD801E5
:102D9000AE0FBF1F2C91D701AE0FBF1F6C91222326
:102DA000E1F06623D1F030E040E050E02F5F3F4F8C
:102DB0004F4F5F4F70E080E090E06F5F7F4F8F4F2D
:102DC0009F4F0E94D11D9B01AC01C501B4010E941F
:102DD000D11DDE01AE0FBF1F8C933196E330F1059C
:102DE000B1F6CE01DF91CF911F910F91FF90EF903F
:102DF000BF90AF909F908F900895CF92DF92EF9207
:102E0000FF92CF93DF93EC018091280590912905E3
:102E10009C012F5F3F4F309329052093280586178B
:102E200097079CF10E941C1A9B01AC01E0912805B8
:102E3000F091290588EE93E0E89FB001E99F700DBD
:102E4000F89F700D1124882777FD8095982FC090EA
:102E50002405D0902505E0902605F09027052C1933
:102E60003D094E095F090E94091E3A832983109289
:102E70002905109228050E941C1A6093240570935E
:102E800025058093260590932705DF91CF91FF902C
:102E9000EF90DF90CF9008958F929F92AF92BF9264
:102EA000EF92FF920F931F93CF93DF9300D01F9267
:102EB000CDB7DEB78C01F62EF80183819481A58110
:102EC000B681892B8A2B8B2BD1F00E94281A8090F7
:102ED0002A0590902B05A0902C05B0902D0568191F
:102EE00079098A099B09D80113968D909D90AD9020
:102EF000BC901697681579058A059B05E8F20E9433
:102F0000281A60932A0570932B0580932C059093C3
:102F10002D05D8011B96ED91FC911C97309751F02F
:102F2000D80117964D915D916D917C911A978F2DD7
:102F30000995F82EA0903005B0903105A114B10488
:102F400051F1F501E484D80111968D919C9112976D
:102F50008436910508F41486D501ED91FC918280A8
:102F600093804F2DB501CE0101960E94AA16F5015E
:102F700045855685628173819E012F5F3F4FC50154
:102F8000F4010995D5011C96EC921C971496AD900E
:102F9000BC901597D3CF69E170E0C8010E94FD167F
:102FA0000F900F900F90DF91CF911F910F91FF9095
:102FB000EF90BF90AF909F908F9008958F929F92C7
:102FC000AF92BF92CF92DF92EF92FF92CF93DF93B7
:102FD000EC016A017B010E941C1A4B015C0161E05B
:102FE00070E080E090E00E944B1A6881CE010E9460
:102FF0004C170E94D1190E941C1A681979098A0974
:103000009B096C157D058E059F0548F3DF91CF91D7
:10301000FF90EF90DF90CF90BF90AF909F908F90F8
:103020000895CF92DF92EF92FF920F931F93CF9369
:10303000DF93EC014423F1F06115710581F19B01EF
:1030400040E050E060E472E48FE090E00E942B1ECC
:10305000CB80DC80ED80FE8089019A010C151D0576
:103060002E053F0510F4970186010B831C832D83E9
:103070003E8315C06115710571F09B0140E050E081
:1030800060E472E48FE090E00E942B1E2B833C836F
:103090004D835E8304C01B821C821D821E82DF91D1
:1030A000CF911F910F91FF90EF90DF90CF900895F7
:1030B000CF92DF92EF92FF920F931F93CF93DF9304
:1030C000EC016B018A017901121613061CF07A01DA
:1030D00000E010E0E881F9810480F581E02DCE0167
:1030E0000995C801880F991F800F911F8C0D9D1D98
:1030F0009B838A83FE86ED86E881F9810284F385CD
:10310000E02DCE01099541E0BC0182E395E00E94EB
:103110001118CE01DF91CF911F910F91FF90EF9089
:10312000DF90CF9008958FEF809332051092340591
:103130001092330510923E0510923D058FEF9FEFE0
:10314000DC018093390590933A05A0933B05B09339
:103150003C050895FA0120E030E003962617370772
:103160006CF44081DC0113974C93418111964C9390
:10317000428111964C932F5F3F4FEFCF0895CF922E
:10318000DF92EF92FF920F931F93CF93DF9300D0C4
:1031900000D0CDB7DEB76B0149833FEF3B8330EF03
:1031A0003A837C0100E010E00C151D0584F4B701A2
:1031B000CE0101962C830E94F41889812C81820F04
:1031C00089830F5F1F4F83E0E80EF11CEDCF0F9056
:1031D0000F900F900F90DF91CF911F910F91FF9063
:1031E000EF90DF90CF900895FC01DB014081618179
:1031F0007281242F2F71220F220F220F522F35E5BB
:10320000539F050E50E0511D1124352F942F9074BB
:10321000842F807247FD1FC091110AC0811103C025
:103220003095452F11C045E5450F20E03BEA2FC002
:1032300081110CC03AEA239F020E20E0211D1124C7
:103240003BEA321B4AEA450F20E021C080E0452FCF
:103250004095252F0DC0911110C081110BC03AEA85
:10326000239F020E20E0211D11244BEA421B2B5A02
:1032700030E00DC0252F209509C0811103C03B5AB5
:103280002BEA03C0365580E025E5251B40E06F3F63
:1032900009F423C06623F1F0332321F0369F030E97
:1032A00030E0311D442321F0469F040E40E0411DD3
:1032B000222321F0269F020E20E0211D1124562FEB
:1032C0005095559F050E50E0511D1124350F450FA7
:1032D000250F03C02FEF4FEF3FEF7F3F09F420C0D2
:1032E00050E0772321F0779F512D09F05F5F552340
:1032F000A1F0332321F0359F030E30E0311D44232C
:1033000021F0459F040E40E0411D222321F0259F1E
:10331000020E20E0211D112403C020E040E030E037
:103320003C9311964C93119712962C930895FC019F
:1033300071836083168A12820895FC0126892331E5
:1033400061F031E0320F368BE20FF11D6283FC0138
:10335000E30FF11D128281E0089580E00895FC01E1
:10336000168A12820895DC01ED91FC91119751911A
:1033700012964C9120E030E0511104C081E04423CA
:1033800079F00DC054130BC05191DC01A20FB31F93
:1033900013964C912F5F3F4F2331310569F780E041
:1033A000089508951F920F920FB60F9211242F9334
:1033B0003F938F939F93AF93BF93809140059091DC
:1033C0004105A0914205B091430530913F0523E0AE
:1033D000230F2D3720F40196A11DB11D05C026E84D
:1033E000230F0296A11DB11D20933F058093400538
:1033F00090934105A0934205B09343058091440505
:1034000090914505A0914605B09147050196A11DF3
:10341000B11D8093440590934505A0934605B09354
:103420004705BF91AF919F918F913F912F910F9041
:103430000FBE0F901F9018952FB7F894609140051C
:103440007091410580914205909143052FBF0895E9
:103450003FB7F8948091440590914505A0914605A9
:10346000B091470526B5A89B05C02F3F19F00196DE
:10347000A11DB11D3FBF6627782F892F9A2F620F9C
:10348000711D811D911D42E0660F771F881F991FD6
:103490004A95D1F708958F929F92AF92BF92CF92A3
:1034A000DF92EF92FF926B017C010E94281A4B0180
:1034B0005C01C114D104E104F104F1F00E94D119BE
:1034C0000E94281A681979098A099B09683E734085
:1034D0008105910570F321E0C21AD108E108F108D5
:1034E00088EE880E83E0981EA11CB11CC114D10483
:1034F000E104F10429F7DDCFFF90EF90DF90CF904A
:10350000BF90AF909F908F900895789484B582601B
:1035100084BD84B5816084BD85B5826085BD85B577
:10352000816085BDEEE6F0E0808181608083E1E826
:10353000F0E010828081826080838081816080835E
:10354000E0E8F0E0808181608083E1EBF0E0808161
:1035500084608083E0EBF0E0808181608083EAE733
:10356000F0E08081846080838081826080838081BC
:10357000816080838081806880831092C10008957B
:10358000833081F028F4813099F08230A1F00895E1
:103590008730A9F08830B9F08430D1F48091800070
:1035A0008F7D03C0809180008F7780938000089585
:1035B00084B58F7702C084B58F7D84BD08958091D6
:1035C000B0008F7703C08091B0008F7D8093B000F2
:1035D0000895CF93DF9390E0FC01E458FF4F2491CE
:1035E000FC01E057FF4F8491882349F190E0880F58
:1035F000991FFC01E854FF4FA591B49182559F4F4C
:10360000FC01C591D4919FB7611108C0F8948C91C9
:10361000209582238C93888182230AC0623051F4E2
:10362000F8948C91322F309583238C938881822B50
:10363000888304C0F8948C91822B8C939FBFDF9178
:10364000CF9108950F931F93CF93DF931F92CDB720
:10365000DEB7282F30E0F901E859FF4F8491F901D6
:10366000E458FF4F1491F901E057FF4F04910023F4
:10367000C9F0882321F069830E94C01A6981E02F74
:10368000F0E0EE0FFF1FE255FF4FA591B4919FB7F9
:10369000F8948C91611103C01095812301C0812B96
:1036A0008C939FBF0F90DF91CF911F910F91089541
:1036B000CF93DF93282F30E0F901E859FF4F849131
:1036C000F901E458FF4FD491F901E057FF4FC4913D
:1036D000CC2391F081110E94C01AEC2FF0E0EE0F84
:1036E000FF1FEC55FF4FA591B4912C912D2381E044
:1036F00090E021F480E002C080E090E0DF91CF9183
:103700000895FC01818D228D90E0805C9F4F821B8B
:1037100091098F7399270895FC01918D828D9817D7
:1037200031F0828DE80FF11D858D90E008958FEFC7
:103730009FEF0895FC01918D828D981761F0828D25
:10374000DF01A80FB11D5D968C91928D9F5F9F73D5
:10375000928F90E008958FEF9FEF08958EE19DE1A5
:10376000892B49F080E090E0892B29F00E941E1DF2
:1037700081110C9400000895FC01848DDF01A80FD5
:10378000B11DA35ABF4F2C91848D90E001968F7389
:103790009927848FA689B7892C93A089B1898C91A8
:1037A00080648C93938D848D981306C00288F3896E
:1037B000E02D80818F7D80830895CF93DF93EC018E
:1037C000888D8823C9F0EA89FB89808185FD05C041
:1037D000A889B9898C9186FD0FC00FB607FCF5CF7B
:1037E000808185FFF2CFA889B9898C9185FFEDCFC3
:1037F000CE010E94BC1BE7CFDF91CF910895CF92FD
:10380000DF92FF920F931F93CF93DF931F92CDB759
:10381000DEB76C0181E0D60158968C9358975B9681
:103820009C915B975C968C915C97981307C050961F
:10383000ED91FC915197808185FD2EC0F601038D9D
:1038400010E00F5F1F4F0F731127F02EF601848DCC
:10385000F81211C00FB607FCF9CFD6015096ED91C2
:10386000FC915197808185FFF1CFC60169830E9449
:10387000BC1B6981EBCF838DE80FF11DE35AFF4F2D
:103880006083D6015B960C935B975296ED91FC9109
:103890005397808180620CC0D6015696ED91FC91C1
:1038A000579760835096ED91FC9151978081806489
:1038B000808381E090E00F90DF91CF911F910F9175
:1038C000FF90DF90CF900895BF92CF92DF92EF925A
:1038D000FF92CF93DF93EC016A017B01B22EE8895E
:1038E000F98982E08083411581EE580761057105F1
:1038F000A1F060E079E08DE390E0A70196010E94DD
:10390000091E2150310941095109569547953795AE
:103910002795211580E1380798F0E889F989108208
:1039200060E874E88EE190E0A70196010E94091E0C
:1039300021503109410951095695479537952795E9
:10394000EC85FD853083EE85FF852083188EEC891C
:10395000FD89B082EA89FB89808180618083EA8960
:10396000FB89808188608083EA89FB898081806807
:103970008083EA89FB8980818F7D8083DF91CF916D
:10398000FF90EF90DF90CF90BF9008951F920F921D
:103990000FB60F9211242F938F939F93EF93FF9362
:1039A000E0915805F09159058081E0915E05F09114
:1039B0005F0582FD12C09081809161058F5F8F73DA
:1039C00020916205821751F0E0916105F0E0E85B1B
:1039D000FA4F958F8093610501C08081FF91EF912F
:1039E0009F918F912F910F900FBE0F901F90189560
:1039F0001F920F920FB60F9211242F933F934F9364
:103A00005F936F937F938F939F93AF93BF93EF9346
:103A1000FF9388E495E00E94BC1BFF91EF91BF915A
:103A2000AF919F918F917F916F915F914F913F9156
:103A30002F910F900FBE0F901F90189588E495E07E
:103A40000E94811B21E0892B09F420E0822F089538
:103A500010924B0510924A0588EE93E0A0E0B0E08A
:103A600080934C0590934D05A0934E05B0934F0560
:103A70008DE394E0909349058093480585EC90E0B0
:103A8000909355058093540584EC90E090935705EE
:103A90008093560580EC90E09093590580935805EB
:103AA00081EC90E090935B0580935A0582EC90E066
:103AB00090935D0580935C0586EC90E090935F05A4
:103AC00080935E0510926105109262051092630565
:103AD000109264050895CF92DF92EF92FF920F93B8
:103AE0001F93CF93DF937C016A01EB0100E010E0AC
:103AF0000C151D0571F06991D701ED91FC910190B4
:103B0000F081E02DC7010995892B19F00F5F1F4F38
:103B1000EFCFC801DF91CF911F910F91FF90EF90F0
:103B2000DF90CF9008956115710581F0DB010D9054
:103B30000020E9F7AD0141505109461B570BDC014C
:103B4000ED91FC910280F381E02D099480E090E0FA
:103B5000089569E474E00C94931D0F931F93CF9321
:103B6000DF93EC010E94931D8C01CE010E94A91DE0
:103B7000800F911FDF91CF911F910F9108950E94A7
:103B8000711E08950E94851A0E94C11D0E94F40AA8
:103B9000CEEADBE10E94660A2097E1F30E94AE1BA9
:103BA000F9CFDB018F939F930E94511EBF91AF917C
:103BB000A29F800D911DA39F900DB29F900D112487
:103BC0000895AA1BBB1B51E107C0AA1FBB1FA61764
:103BD000B70710F0A61BB70B881F991F5A95A9F7B6
:103BE00080959095BC01CD01089597FB072E16F4A2
:103BF000009407D077FD09D00E94E11D07FC05D095
:103C00003EF4909581959F4F0895709561957F4FF3
:103C10000895A1E21A2EAA1BBB1BFD010DC0AA1F0D
:103C2000BB1FEE1FFF1FA217B307E407F50720F025
:103C3000A21BB30BE40BF50B661F771F881F991FA0
:103C40001A9469F760957095809590959B01AC01E9
:103C5000BD01CF010895052E97FB1EF400940E942C
:103C6000421E57FD07D00E94091E07FC03D04EF4E8
:103C70000C94421E50954095309521953F4F4F4FE3
:103C80005F4F089590958095709561957F4F8F4F08
:103C90009F4F08950E94621EB7FF0895821B930BE9
:103CA00008950E94621EA59F900DB49F900DA49F41
:103CB000800D911D11240895EE0FFF1F0590F491C2
:103CC000E02D0994A29FB001B39FC001A39F700D86
:103CD000811D1124911DB29F700D811D1124911D14
:103CE000089581E090E0F8940C94761EF894FFCF4C
:103CF0003905537563636573730057726F6E6700A0
:103D000027426C6F77206F7574207468652063613B
:103D10006E646C6573272070757A7A6C65206C6FA1
:103D2000636B2032303136202D5369676D617A40E4
:103D3000676D61696C2E636F6D284A6F6E204272E9
:103D4000756E6F290073657175656E6365206973A3
:103D50002073696D706C7920302D312D322D330038
:103D60002D2D2D50494E4F5554532D2D2D20004CA7
:103D700045445F4441544130202D2050696E204419
:103D800033202020202020202050575F50494E30E3
:103D9000202D2050696E204438004C45445F44413A
:103DA000544131202D2050696E20443420202020A1
:103DB0002020202050575F50494E31202D2050693F
:103DC0006E204439004C45445F4441544132202D1B
:103DD0002050696E204435202020202020202050B3
:103DE000575F50494E32202D2050696E20443130AB
:103DF000004C45445F4441544133202D2050696EAE
:103E0000204436202020202020202050575F504979
:103E10004E33202D2050696E20443131004C4F43E9
:103E20004B5F50494E202D2050696E2044313300A5
:103E3000456163682063616E646C6520686173200E
:103E4000312057533238313242204C454420616E84
:103E5000642061206D6F646966696564206B6E6FB4
:103E6000636B2073656E736F722E20003420666C56
:103E700069636B6572696E67202857533238313237
:103E800062292063616E646C65732C20426C6F77CD
:103E90006E206F757420696E206F72646572207475
:103EA00072696767657220756E6C6F636B206576EB
:103EB000656E74206F6E204431332E00496E20747D
:103EC0006869732070726F6A65637420757365200A
:103ED00034206368656170206469676974616C206F
:103EE0006B6E6F636B2073656E736F72732C2072D1
:103EF000656D6F76652074686520737072696E6792
:103F0000207472696767657200616E6420696E7300
:103F100074616C6C20616E20656C6563747265748D
:103F2000204D494320656C656D656E742E20576881
:103F3000656E2074686520706C6179657220626CB2
:103F40006F7773206F6E2074686520656C656D6592
:103F50006E742069742073686F756C642074726964
:103F600067676572207468652073656E736F722E63
:103F70000073656E73697469766974792063616E24
:103F80002062652061646A757374656420746F20B3
:103F9000656C696D696E6174652066616C7365201E
:103FA000747269676765727320627920616D6269F6
:103FB000656E74206E6F69736500313233340000B2
:103FC000000000BF1DBF1DBF1DA700A300CB000048
:103FD0000000009B15E615BF1DA700A300CB00BF86
:103FE0001D000000009B15E615E000A700A300D708
:103FF00000E214000000009B15E615DE00A700A3F8
:1040000000D4009512000000009B15E615DC00A707
:1040100000A300D1004810000000009B15E615DA4F
:1040200000A700A300CE00FB0D00000000FF1B6BEB
:104030001D811B9A1B8C1BDD1B0D0A006E616E001F
:08404000696E66006F766600F0
:107E0000112484B714BE81FFF0D085E080938100F7
:107E100082E08093C00088E18093C10086E0809377
:107E2000C20080E18093C4008EE0C9D0259A86E02C
:107E300020E33CEF91E0309385002093840096BBD3
:107E4000B09BFECF1D9AA8958150A9F7CC24DD24C4
:107E500088248394B5E0AB2EA1E19A2EF3E0BF2EE7
:107E6000A2D0813461F49FD0082FAFD0023811F036
:107E7000013811F484E001C083E08DD089C08234E0
:107E800011F484E103C0853419F485E0A6D080C0E4
:107E9000853579F488D0E82EFF2485D0082F10E0AE
:107EA000102F00270E291F29000F111F8ED06801E7
:107EB0006FC0863521F484E090D080E0DECF843638
:107EC00009F040C070D06FD0082F6DD080E0C81688
:107ED00080E7D80618F4F601B7BEE895C0E0D1E017
:107EE00062D089930C17E1F7F0E0CF16F0E7DF06D8
:107EF00018F0F601B7BEE89568D007B600FCFDCFD4
:107F0000A601A0E0B1E02C9130E011968C91119780
:107F100090E0982F8827822B932B1296FA010C0160
:107F200087BEE89511244E5F5F4FF1E0A038BF0790
:107F300051F7F601A7BEE89507B600FCFDCF97BE46
:107F4000E89526C08437B1F42ED02DD0F82E2BD052
:107F50003CD0F601EF2C8F010F5F1F4F84911BD097
:107F6000EA94F801C1F70894C11CD11CFA94CF0C13
:107F7000D11C0EC0853739F428D08EE10CD085E9AC
:107F80000AD08FE07ACF813511F488E018D01DD067
:107F900080E101D065CF982F8091C00085FFFCCF94
:107FA0009093C60008958091C00087FFFCCF809118
:107FB000C00084FD01C0A8958091C6000895E0E648
:107FC000F0E098E1908380830895EDDF803219F02E
:107FD00088E0F5DFFFCF84E1DECF1F93182FE3DFCA
:107FE0001150E9F7F2DF1F91089580E0E8DFEE27F6
:047FF000FF270994CA
:027FFE00040479
:0400000300007E007B
:00000001FF
